:10000000A5C10000C3C10000C1C10000BFC1000004
:10001000BDC10000BBC10000B9C10000B7C10000F4
:10002000B5C10000B3C10000B1C10000AFC1000004
:10003000ADC10000ABC10000A9C10000A7C1000014
:10004000A5C10000A3C10000A1C100009FC1000024
:100050009DC100009BC1000099C1000097C1000034
:1000600095C1000093C1000091C100008FC1000044
:100070008DC100008BC1000089C1000087C1000054
:1000800085C1000083C1000081C100007FC1000064
:100090007DC100007BC1000079C1000077C1000074
:1000A00075C1000073C1000071C100006FC1000084
:1000B0006DC100006BC1000069C1000067C1000094
:1000C00065C1000063C1000061C100005FC10000A4
:1000D0005DC100005BC1000059C1000057C10000B4
:1000E00055C1000053C1000051C100004FC10000C4
:1000F0004DC100004BC1000049C1000047C10000D4
:1001000045C1000043C1000041C100003FC10000E3
:100110003DC100003BC1000039C1000037C10000F3
:1001200035C1000033C1000031C100002FC1000003
:100130002DC100002BC1000029C1000027C1000013
:1001400025C1000023C1000021C100001FC1000023
:100150001DC100001BC1000019C1000017C1000033
:1001600015C1000013C1000011C100000FC1000043
:100170000DC100000BC1000009C1000007C1000053
:1001800005C1000003C1000001C10000FFC0000064
:10019000FDC00000FBC00000F9C00000F7C0000077
:1001A000F5C00000F3C00000F1C00000EFC0000087
:1001B000EDC00000EBC00000E9C00000E7C0000097
:1001C000E5C00000E3C00000E1C00000DFC00000A7
:1001D000DDC00000DBC00000D9C00000D7C00000B7
:1001E000D5C00000D3C00000D1C00000CFC00000C7
:1001F000CDC00000CBC00000C9C000006E616E0021
:10020000696E66006364696E6F70737578585B65BC
:10021000666745464700616E006E66696E6974796F
:1002200000CDCCCC3D0AD7233C17B7D13877CC2BA7
:10023000329595E6241FB14F0A000020410000C806
:100240004200401C4620BCBE4CCA1B0E5AAEC59D87
:100250007400407A10F35A00A0724E18090010A5DD
:10026000D4E80000E87648170000E40B54020000D0
:10027000CA9A3B000000E1F5050000809698000056
:100280000040420F000000A086010000001027007F
:10029000000000E803000000006400000000000A05
:1002A00000000000000100000000002C76D888DC6F
:1002B000674F0823DFC1DFAE59E1B1B796E5E3E44C
:1002C00053C63AE651997696E8E6C28426EB898CC5
:1002D0009B62ED407C6FFCEFBC9C9F40F2BAA56F27
:1002E000A5F490055A2AF75C936B6CF9676DC11BF6
:1002F000FCE0E40D47FEF520E6B500D0ED902E03BE
:1003000000943577050080841E080000204E0A0006
:100310000000C80C333333330F986E12831141EF52
:100320008D2114893BE65516CFFEE6DB18D1844BB0
:10033000381BF77C1D901DA4BBE424203284725E20
:10034000228100C9F124ECA1E53D270011241FBE44
:10035000CFEFCDBFDFE5DEBF00E00CBF10E2A0E0D5
:10036000B0E2EEEEF9E100E00BBF02C007900D92A3
:10037000A032B107D9F720E2A0E2B0E201C01D929D
:10038000A632B207E1F7A2D70C94F50C39CE2F9222
:100390003F924F925F926F927F928F929F92AF9215
:1003A000BF92CF92DF92EF92FF920F931F93CF9362
:1003B000DF93CDB7DEB76097CDBFDEBF7C011B01F9
:1003C0006A01FC0116821782838181FF76C39E0138
:1003D0002F5F3F4F5901F7019381F10193FD859103
:1003E00093FF81911F01882309F4C8C2853239F433
:1003F00093FD859193FF81911F01853239F4B701F7
:1004000090E00E94F80B36016301E5CF512C912C4E
:1004100000E0003238F48B3209F190F48032F9F0C8
:10042000833209F107FD34C020ED280F2A3020F572
:1004300006FF1BC0FAE05F9E200D1124522E05C05E
:100440008D3279F0803371F70160F10193FD859170
:1004500093FF81911F018111DCCF1AC002600460FB
:10046000F4CF0860F2CF0061F0CF3AE0939E200D08
:100470001124922E0062E9CF8E3221F406FD7EC255
:100480000064E3CF8C3611F40068DFCF8836E9F2E0
:100490009BEB980F9330D8F50061805E06FD02C09B
:1004A00046E0542E102F1F738536C1F5106417FFD8
:1004B0003EC08BE3851508F442C091E0950D9C8702
:1004C00027E0360134E0630E711CF6016081718112
:1004D000828193810C85A5010E94B30A6C01F98188
:1004E000FE87F0FF02C0F3FF30C011FD30C0012FC6
:1004F000047012FD00E22E852C70422E09F464C0B7
:100500000111DEC2F3E0F91520F1412C36C09BE960
:10051000980F933008F077C10F7EC0CF863611F464
:100520001068C5CF552009F4C2CF5A94C0CFE7E078
:10053000E51548F427E037E0532E1C86C2CF27E0AC
:10054000FCE3FC87BECF252DF8CF0DE2D4CF0BE224
:10055000D2CF83E0492C481A13FD08C0B70180E2CE
:1005600090E00E94F80B4A944110F8CF002329F044
:10057000B701802F90E00E94F80B3E8533FF15C035
:100580009CEFC92E91E0D92E1071F6018491811152
:1005900011C0442009F438CFB70180E290E00E94F6
:1005A000F80B4A94F6CF84E0D5CF80E0C82E82E0E5
:1005B000D82EEACF11118052B70190E00E94F80BBB
:1005C0008FEFC81AD80AE1CF17FF7DC08C858C0D3C
:1005D000FE85F4FF04C09A81913309F48150181606
:1005E0000CF094C08C87893010F028E02C8717FF1E
:1005F00092C01C141D040CF091C0C601019601119B
:100600000196552031F0252D30E02F5F3F4F820FAE
:10061000931F292D30E08217930714F4492C481AB0
:10062000812F897011F441107CC0002329F0B7019B
:10063000802F90E00E94F80B13FD02C0411078C09B
:1006400017FF91C04601D7FE02C0812C912CC60134
:10065000019688199909F501E80FF91FEF87F88BC2
:1006600096018C85281B31092C873D87052D10E0CC
:100670001195019511099FEF8916990629F4B70183
:100680008EE290E00E94F80BC814D9040CF457C015
:10069000EC85FD85E815F9050CF051C0EF85F8896A
:1006A0008081F1E08F1A91082F8538892F5F3F4FA5
:1006B0002F87388B801691060CF443C0B70190E069
:1006C0000E94F80BD8CF16FD92CFE52DF0E0EC1587
:1006D000FD0534F03CEFC3163FEFD3060CF0106875
:1006E0003296EA0DFB1D552019F08291803361F09E
:1006F00017FF7DCF81E0850D8C87852D90E0C81692
:10070000D9063CF45C1873CF5A94EDCF91E09C87E6
:100710006ECF512C6CCF85E090E071CF81E090E0FE
:100720006ECFB70180E290E00E94F80B4A947BCF35
:10073000B70180E390E00E94F80B4A947FCF80E3FA
:10074000B0CFC814D90441F49A81963350F495334C
:1007500019F43E8534FF05C0B70190E00E94F80B04
:1007600018CF81E3F9CF8A81813319F09E859F7E6E
:100770009E87B70190E00E94F80B511024C014FD31
:1007800038C085E690E0B7010E94F80BD7FC06C0A0
:10079000C114D10489F5EE85E4FF2EC0D194C19433
:1007A000D1088DE2B70190E00E94F80B80E32AE0C7
:1007B000C216D1041CF5B70190E00E94F80BB701F6
:1007C000C601C096CBCFB7018EE290E00E94F80B35
:1007D0005394539482E001E0080FF501E80FF11DF6
:1007E0008081B70190E00E94F80B802F0511F3CFB4
:1007F000C6CF85E490E0C7CF8BE2D4CF8F5FFAE01D
:10080000CF1AD108D4CF8336B9F0833709F441C069
:10081000833509F05AC03601F2E06F0E711CF60103
:10082000C080D18006FF48C0652D70E0C6018ED71C
:100830008C879D8700680DC0360132E0630E711C05
:10084000F6018081898321E030E02C873D876501B6
:100850000F7703FD07C0892D90E02C853D85281773
:10086000390768F1492CEC85FD85EF2B09F491CE11
:10087000F60107FD859107FF81916F01B70190E0B7
:10088000B7D741104A948C859D8501978C879D87A9
:10089000EACF360132E0630E711CF601C080D180D0
:1008A00006FF07C0652D70E0C6015BD78C879D876A
:1008B000CFCF6FEF7FEFF8CF6FEF7FEFB7CFB701FD
:1008C00080E290E095D79A94C6CF843611F08936AD
:1008D000C1F5360107FF2AC0F4E06F0E711CF60166
:1008E0006081718182819381102F1F7697FF08C0EC
:1008F00090958095709561957F4F8F4F9F4F1068B1
:100900002AE030E0A5010E94940CC82ECA1816FFF8
:100910006AC0012F0E7FC51408F09EC014FF04C0EA
:1009200012FD02C0012F0E7ED52C5FC0F2E06F0ECB
:10093000711CF60160817181072E000C880B990BE8
:10094000D3CF102F8537A1F41F7E2AE030E0360187
:1009500017FF40C0F4E06F0E711CF60160817181D9
:1009600082819381A501E0D7C82ECA181F77CFCF07
:10097000197F8F3661F1D8F4883521F1F70186812E
:1009800097816096CDBFDEBFDF91CF911F910F9110
:10099000FF90EF90DF90CF90BF90AF909F908F909F
:1009A0007F906F905F904F903F902F900895803789
:1009B00039F0883719F714FD146020E130E0C7CF13
:1009C0001061F9CF04FD166020E132E0C0CF28E0CD
:1009D00030E0BDCFF2E06F0E711CF60160817181D5
:1009E00080E090E0BFCFDC2C012F04FF3EC0FE0171
:1009F000EC0DF11D8081803389F5097EF02FF870B0
:100A00004F2E03FD3FC000FF39C05C2CD91410F4F9
:100A1000590C5D1804FF3EC0B70180E390E0E8D6B2
:100A200002FF06C001FD33C088E790E0B701E0D6C1
:100A3000C51408F43CC0CA940C2D10E00F5F1F4F82
:100A40000A0D1B1DF80182918F01B70190E0D0D6ED
:100A50000A151B05B9F79DCDDC2CC7CF02FD02C0DE
:100A6000D394CCCFD394D394C9CF802F867831F24E
:100A7000F7CFB70180E290E0BBD6D394D914C8F386
:100A8000412CC8CFD914E0F7492C4D18C3CF88E5C5
:100A900090E0CCCF802F867859F201FF06C08BE220
:100AA00007FD8DE2B70190E0C2CF80E2F9CFB70138
:100AB00080E390E09DD65A94BBCF8FEF9FEF61CF3C
:100AC00024E0291508F46FCD412C52CD20FD09C03A
:100AD000FC0123FD05C022FF02C0738362835183A2
:100AE0004083089544FD17C046FD1DC0DB01FC0195
:100AF000AA0FBB1FEE1FFF1F1094D1F76A0F7B1FB9
:100B00008E1F9F1F660F771F881F991F620F711D11
:100B1000811D911D089533E0660F771F881F991F6F
:100B20003150D1F7F3CF34E0F7CF0F931F93CF932A
:100B3000DF938C01C80120D6EC0197FD06C0EBD5F0
:100B4000892BC1F7B801CE01D6D6CE01DF91CF9166
:100B50001F910F9108958F929F92AF92BF92CF9263
:100B6000DF92EF92FF920F931F93CF93DF937C015D
:100B70008B016A01D22F00D69C0133272B3231051D
:100B800021F02D323105B1F4D0680150110971F412
:100B900080E0DF91CF911F910F91FF90EF90DF9058
:100BA000CF90BF90AF909F908F900895C701E4D5EC
:100BB00097FDEECFCD2FCD7F2D2F2073F9F480330D
:100BC000E9F4580181E0A81AB10881F0C701D4D531
:100BD00097FD0CC0282F2F7D283561F4C264025088
:100BE000110921F0C701C8D597FF08C0812C912CAD
:100BF000540111C0D6FF20C0C2608501812C912C08
:100C0000540120ED280F283018F1C4FF17C0B70198
:100C100072D6C1FFBDCFC7FF08C0B094A094909416
:100C20008094811C911CA11CB11C2C2FB501A40126
:100C3000C6014CDF81E0ADCFC261DFCF2A3040F08A
:100C4000C6FFE5CF2F7D3FEE320F363000F727503D
:100C50004C2FC501B40146DF4B015C01C26001505D
:100C60001109C9F2C70188D597FFCBCFD2CF6F92B8
:100C70007F928F929F92AF92BF92CF92DF92EF922C
:100C8000FF920F931F93CF93DF93CDB7DEB7A0975B
:100C9000CDBFDEBF5C014B017A01CE0101966C0134
:100CA00080E2F60111928A95E9F7F501B381890195
:100CB00020E030E060E090E0A0E041E050E0F801AA
:100CC000B3FD8591B3FF8191782F8F01811115C0FC
:100CD00000E010E0C801A096CDBFDEBFDF91CF914C
:100CE0001F910F91FF90EF90DF90CF90BF90AF904A
:100CF0009F908F907F906F9008958E3519F42115F5
:100D00003105E9F1EA2FF0E0E217F307FCF48D3545
:100D1000F1F18D32D9F49923B1F1872F869586951B
:100D20008695F601E80FF11D872F87703A0102C002
:100D3000660C771C8A95E2F7C3019081892B80832A
:100D4000671719F17617C8F47F5FE7CF9111E5CFE8
:100D5000682F669566956695F601E60FF11D682F7A
:100D600067703A0102C0660C771C6A95E2F7B3011E
:100D70007081672B6083682F03C07150CECFA1E0D4
:100D80002F5F3F4F9CCF91E0FBCF90E0F9CF9923AD
:100D900019F08E8180628E83A1111EC07724739416
:100DA000C501EAD497FD15C0282F269526952695CE
:100DB000F601E20FF11D208130E0AC0147705527AC
:100DC00002C0359527954A95E2F720FD10C0B50180
:100DD00092D57720C9F07CCFF6019E012F5D3F4F61
:100DE0008081809581932E173F07D1F7D7CFE114EB
:100DF000F10429F0F7018083C70101967C0191E09D
:100E0000891A9108712C61F6E114F10409F462CF9A
:100E1000F70110825FCF2F923F924F925F926F92B5
:100E20007F929F92AF92BF92CF92DF92EF92FF920A
:100E30000F931F93CF93DF936C018B011A019CD406
:100E4000EC0199278B329105D9F08D9709F0A5C057
:100E500030E8932E01501109A9F480E0DF91CF9181
:100E60001F910F91FF90EF90DF90CF90BF90AF90C8
:100E70009F907F906F905F904F903F902F9008953C
:100E8000912CE8CFC60178D4EC0197FDE6CFCE01D6
:100E90004AD48936910509F482C08E36910509F449
:100EA000B2C0412C512C3201E12CF12CB92C2C2F49
:100EB00020532A3008F0BFC0E92DE2609E2E8B2D12
:100EC0008870B2FEA3C0811103C0FFEFEF1AFF0AC2
:100ED0000150110929F0C6014FD4EC0197FFE6CF6C
:100EE00091FEBBCF8C2F8F7D853409F03EC0580119
:100EF00081E0A81AB10809F4B0CFC6013DD4EC01D5
:100F000097FDABCF99278B32910529F08D9761F42E
:100F1000E92DE0619E2E5801F2E0AF1AB10809F404
:100F20009CCFC60129D4EC01CE01C0970A9708F0E6
:100F300094CF8501A12CB12CB501BB0C880B990B6A
:100F40002C2F205340E2CEDD5B010150110931F01E
:100F5000C60112D4EC01C0970A9770F394FE03C047
:100F6000B194A194B108EA0CFB1C012B29F0D7FD28
:100F700003C0B601CE01BFD4C301B20103D2F7FE54
:100F800075C0F194E194F108C5E3D2E06E0128E167
:100F9000C21AD10800E210E05FC0912C78CFE9E1DD
:100FA000F2E0EF012196B490B11008C0C951D240CF
:100FB000C1F480E090E0A0ECBFE717C00150110938
:100FC00061F0C601D9D37C0197FD07C0ACD3FE0107
:100FD000B81639F3B601C7018ED4CC51D24009F00E
:100FE0003CCF80E090E0A0E8BFE7BC01CD0197FCDA
:100FF00090582114310429F0F101608371838283B8
:10100000938381E02BCFE6E1F2E0CBCF882319F088
:1010100081E0E81AF10840E2C301B20163DD2B016F
:101020003C01683979498949994108F451CFFB2D30
:10103000F6609F2E4DCF2E3F09F052CF93FC50CF3C
:10104000292D2860922E44CFFE012591359145919E
:101050005491D5D1E01AF10AE016F106A8F72497C9
:1010600016950795CC15DD05B9F7C1CFCDE4D2E0D3
:101070008DCF6F927F928F929F92AF92BF92CF92BD
:10108000DF92EF92FF920F931F93CF93DF935C0158
:10109000EB014A01FC0116821782612CF5010381E4
:1010A000FE0103FD859103FF8191182FEF01882335
:1010B000C9F090E030D3892B19F0C50136DDEECFB1
:1010C000153241F4FE0103FD159103FF1191EF016B
:1010D0001532C9F4C50150D397FDA4C01817F1F219
:1010E000B50109D4862D90E0DF91CF911F910F912A
:1010F000FF90EF90DF90CF90BF90AF909F908F9038
:101100007F906F9008951A32A1F503FD159103FFAA
:101110001191EF0177247394E12CF12C20ED210F34
:101120002A3048F171FE37C0E114F104D9F21836C3
:10113000B1F11C3609F43FC01123A1F2612F70E018
:1011400084E092E0F8D2892B69F270FC3EC0F40191
:10115000C080D180C40102964C011E3609F038C00F
:10116000F5014681578160E070E0272DC601AEDCB5
:1011700095CF712CD1CFF72DF2607F2EB70180E093
:1011800090E040E2AFDC7B01FE0103FD159103FF1F
:101190001191EF01C3CFEE24EA94FE2CC8CFFE01DB
:1011A00003FD159103FF1191EF01183609F0C4CF2B
:1011B000872D8860782E972D9460792EFE0103FD8F
:1011C000159103FF1191EF01B7CFC12CD12CC5CFE1
:1011D0001336C9F471FC03C0EE24E394F12CC5016D
:1011E000CBD297FD1FC0C114D10429F0F601808332
:1011F000C60101966C0191E0E91AF10881F770FCD3
:101200004DCF63944BCF1B3591F49E01A601B701DE
:10121000C5012DDDEC01892B91F7F50183818073E8
:1012200009F460CF61105ECF8FEF9FEF5DCFC501F6
:101230007CDC97FDF7CF1F3609F444C090F41436D8
:1012400009F43CC0193629F0183581F4F72DF06403
:101250007F2E272DA601B701C5017DDC8111CFCFDF
:10126000DCCF1337C9F038F4103781F3A601B7018A
:10127000C501D1DDF3CF153709F1183739F3F6CFB2
:10128000C114D10429F0F6010083C60101966C0156
:1012900091E0E91AF10859F0C5016ED28C0197FD71
:1012A00006C039D2892B61F3B501C80124D3C1141A
:1012B000D10409F4A4CFF6011082A1CF872D80625A
:1012C000782EC7CF972D9061792EC3CFCF93DF9320
:1012D0001F92CDB7DEB735D04ED08EE090E2CCD2A3
:1012E00081E48983CE0101966C0187E1E82E80E2DA
:1012F000F82E0AE110E2DF92CF92FF92EF92E8D24D
:1013000089811F928F931F930F93A2D2CDBFDEBF0F
:10131000F2CFCF93C82F8A3011F48DE0FADF80919D
:10132000A10885FFFCCFC093A00880E090E0CF919A
:1013300008958091A10887FFFCCF8091A00890E0DC
:101340000895E0E4F6E088E0818384E08283E0EAC7
:10135000F8E017828CE08683138283E0858388E13E
:101360008093A408E0E2F0E280E090E2828393833D
:101370008083918308958091A10887FF08958091CB
:10138000A008F9CFE89409C097FB3EF490958095AA
:10139000709561957F4F8F4F9F4F9923A9F0F92F3B
:1013A00096E9BB279395F695879577956795B795B9
:1013B000F111F8CFFAF4BB0F11F460FF1BC06F5F9F
:1013C0007F4F8F4F9F4F16C0882311F096E911C0B1
:1013D000772321F09EE8872F762F05C0662371F0D2
:1013E00096E8862F70E060E02AF09A95660F771FE6
:1013F000881FDAF7880F9695879597F908950BD08F
:1014000078C069D028F06ED018F0952309F05AC042
:101410005FC01124A2C07ED0A0F3959FD1F3950F99
:1014200050E0551F629FF001729FBB27F00DB11D68
:10143000639FAA27F00DB11DAA1F649F6627B00DF8
:10144000A11D661F829F2227B00DA11D621F739FE1
:10145000B00DA11D621F839FA00D611D221F749FEF
:101460003327A00D611D231F849F600D211D822F36
:10147000762F6A2F11249F5750408AF0E1F088237D
:101480004AF0EE0FFF1FBB1F661F771F881F91508A
:101490005040A9F79E3F510570F014C05EC05F3FF9
:1014A000ECF3983EDCF3869577956795B795F795BD
:1014B000E7959F5FC1F7FE2B880F911D9695879545
:1014C00097F9089597F99F6780E870E060E00895C4
:1014D0009FEF80EC089500240A941616170618064C
:1014E0000906089500240A94121613061406050628
:1014F0000895092E0394000C11F4882352F0BB0FB9
:1015000040F4BF2B11F460FF04C06F5F7F4F8F4F1B
:101510009F4F089557FD9058440F551F59F05F3F56
:1015200071F04795880F97FB991F61F09F3F79F005
:1015300087950895121613061406551FF2CF469587
:10154000F1DF08C0161617061806991FF1CF869509
:101550007105610508940895E894BB2766277727ED
:10156000CB0197F90895283008F027E03327DA01F6
:10157000990F311D87FD916000966105710539F461
:1015800032602E5F3D9330E32A95E1F708959F3F47
:1015900030F080387105610509F03C5F3C5F3D9398
:1015A000913008F08068911DDF93CF931F930F93C4
:1015B000FF92EF92192F987F9695E92F9695969521
:1015C000E90FFF27E555FD4F99273327EE24FF2428
:1015D000A701E70105900894079428F4360FE71E49
:1015E000F81E491F511D660F771F881F991F06940B
:1015F000A1F70590079428F4E70EF81E491F561F1F
:10160000C11D770F881F991F661F0694A1F70590CB
:10161000079428F4F80E491F561FC71FD11D880FC5
:10162000991F661F771F0694A1F70590079420F471
:10163000490F561FC71FD81F990F661F771F881F96
:101640000694A9F784911095177041F0D695C79527
:1016500057954795F794E7941A95C1F7E1E5F2E0BD
:1016600068941590159135916591959105907FE25B
:101670007395E118F10A430B560BC90BD009C0F75B
:10168000E10CF11E431F561FC91FD01D7EF470339D
:1016900011F48A95E6CFE894015030F0080F0AF46F
:1016A0000027021708F4202F2395022F7A3328F001
:1016B00079E37D932A95E9F710C07D932A9589F601
:1016C000069497956795379517951794E118F10A41
:1016D000430B560BC90BD00998F023957E91739557
:1016E0007A3308F070E37C932013B8F77E91706131
:1016F0007D9330F0839571E37D9370E32A95E1F754
:101700001124EF90FF900F911F91CF91DF919927B6
:1017100087FD90950895911165C1803219F0895027
:101720008550D0F708959111089581548A5108F495
:10173000805E855A0895FC010590061621F0002070
:10174000D9F7C00108953197CF010895FC010590A4
:10175000615070400110D8F7809590958E0F9F1FB3
:101760000895FC016150704001900110D8F78095F8
:1017700090958E0F9F1F0895CF93DF93EC012B81DF
:1017800020FF1AC026FF0CC02F7B2B838E819F81E8
:1017900001968E839F838A8190E0DF91CF91089597
:1017A00022FF18C0E881F9818081082E000C990B76
:1017B000009729F420622B838FEF9FEFEECF3196B5
:1017C000E883F9832E813F812F5F3F4F2E833F8334
:1017D0009927E3CFEA85FB85199597FFF3CF2B81F6
:1017E000019621F080E2822B8B83E6CF80E1FBCF54
:1017F0000F931F93CF93DF93182F092FEB018B814A
:1018000081FD09C01FEF0FEF812F902FDF91CF9146
:101810001F910F91089582FF14C02E813F818C810A
:101820009D81281739073CF4E881F981CF010196A1
:101830008883998310838E819F8101968E839F83F5
:10184000E3CFE885F985812F1995892BA1F3DACFAC
:10185000CF93DF93CDB7DEB7AE014A5F5F4FFA019A
:1018600061917191AF0180912220909123200E947B
:10187000C701DF91CF9108950F931F93CF93DF930B
:10188000E0912220F0912320238121FF13C0EC015D
:1018900000E010E089916091222070912320DB010B
:1018A0001896ED91FC91199781110CC08AE0199559
:1018B000892B11F00FEF1FEFC801DF91CF911F911E
:1018C0000F9108951995892B29F30FEF1FEFE2CFA0
:1018D000CF93DF93CDB7DEB7AE014A5F5F4FFA011A
:1018E00061917191AF018091202090912120C1DB05
:1018F000DF91CF910895FB01238120FF12C026FDC7
:1019000010C08F3F3FEF930771F082832F7D2064DB
:1019100023832681378121503109268337839927F4
:1019200008958FEF9FEF0895FA01AA27283051F10B
:10193000203181F1E8946F936E7F6E5F7F4F8F4F00
:101940009F4FAF4FB1E03ED0B4E03CD0670F781F5F
:10195000891F9A1FA11D680F791F8A1F911DA11D44
:101960006A0F711D811D911DA11D20D009F468947D
:101970003F912AE0269F11243019305D3193DEF625
:10198000CF010895462F4770405D4193B3E00FD0DB
:10199000C9F7F6CF462F4F70405D4A3318F0495DC6
:1019A00031FD4052419302D0A9F7EACFB4E0A695A9
:1019B0009795879577956795BA95C9F700976105CB
:1019C000710508959B01AC010A2E06945795479521
:1019D00037952795BA95C9F7620F731F841F951F16
:0E19E000A01D0895992788270895F894FFCF39
:1019EE0000000003000000008909990900005765F6
:1019FE006C636F6D6521002563000A25630A000084
:00000001FF
